{
  "_format": "hh-sol-artifact-1",
  "contractName": "HelloWorldMarket",
  "sourceName": "contracts/HelloWorldMarket.sol",
  "abi": [
    {
      "anonymous": false,
      "inputs": [
        {
          "indexed": false,
          "internalType": "uint256",
          "name": "itemId",
          "type": "uint256"
        },
        {
          "indexed": false,
          "internalType": "uint256",
          "name": "tokenId",
          "type": "uint256"
        },
        {
          "indexed": false,
          "internalType": "uint256",
          "name": "price",
          "type": "uint256"
        },
        {
          "indexed": false,
          "internalType": "address",
          "name": "tokenContractAddress",
          "type": "address"
        },
        {
          "indexed": false,
          "internalType": "address",
          "name": "seller",
          "type": "address"
        },
        {
          "indexed": false,
          "internalType": "address",
          "name": "owner",
          "type": "address"
        }
      ],
      "name": "ItemCreated",
      "type": "event"
    },
    {
      "anonymous": false,
      "inputs": [
        {
          "indexed": true,
          "internalType": "address",
          "name": "previousOwner",
          "type": "address"
        },
        {
          "indexed": true,
          "internalType": "address",
          "name": "newOwner",
          "type": "address"
        }
      ],
      "name": "OwnershipTransferred",
      "type": "event"
    },
    {
      "inputs": [
        {
          "internalType": "address",
          "name": "_tokenContractAddress",
          "type": "address"
        },
        {
          "internalType": "uint256",
          "name": "_tokenId",
          "type": "uint256"
        },
        {
          "internalType": "uint256",
          "name": "_price",
          "type": "uint256"
        }
      ],
      "name": "addItem",
      "outputs": [],
      "stateMutability": "payable",
      "type": "function"
    },
    {
      "inputs": [
        {
          "internalType": "address",
          "name": "_tokenContractAddress",
          "type": "address"
        },
        {
          "internalType": "uint256",
          "name": "_itemId",
          "type": "uint256"
        }
      ],
      "name": "buyItem",
      "outputs": [],
      "stateMutability": "payable",
      "type": "function"
    },
    {
      "inputs": [
        {
          "internalType": "uint256",
          "name": "_itemId",
          "type": "uint256"
        }
      ],
      "name": "getItemById",
      "outputs": [
        {
          "components": [
            {
              "internalType": "uint256",
              "name": "itemId",
              "type": "uint256"
            },
            {
              "internalType": "uint256",
              "name": "tokenId",
              "type": "uint256"
            },
            {
              "internalType": "uint256",
              "name": "price",
              "type": "uint256"
            },
            {
              "internalType": "address",
              "name": "tokenContractAddress",
              "type": "address"
            },
            {
              "internalType": "address payable",
              "name": "seller",
              "type": "address"
            },
            {
              "internalType": "address payable",
              "name": "owner",
              "type": "address"
            }
          ],
          "internalType": "struct HelloWorldMarket.Item",
          "name": "",
          "type": "tuple"
        }
      ],
      "stateMutability": "view",
      "type": "function"
    },
    {
      "inputs": [],
      "name": "getSenderItems",
      "outputs": [
        {
          "components": [
            {
              "internalType": "uint256",
              "name": "itemId",
              "type": "uint256"
            },
            {
              "internalType": "uint256",
              "name": "tokenId",
              "type": "uint256"
            },
            {
              "internalType": "uint256",
              "name": "price",
              "type": "uint256"
            },
            {
              "internalType": "address",
              "name": "tokenContractAddress",
              "type": "address"
            },
            {
              "internalType": "address payable",
              "name": "seller",
              "type": "address"
            },
            {
              "internalType": "address payable",
              "name": "owner",
              "type": "address"
            }
          ],
          "internalType": "struct HelloWorldMarket.Item[]",
          "name": "",
          "type": "tuple[]"
        }
      ],
      "stateMutability": "view",
      "type": "function"
    },
    {
      "inputs": [],
      "name": "getUnsoldItems",
      "outputs": [
        {
          "components": [
            {
              "internalType": "uint256",
              "name": "itemId",
              "type": "uint256"
            },
            {
              "internalType": "uint256",
              "name": "tokenId",
              "type": "uint256"
            },
            {
              "internalType": "uint256",
              "name": "price",
              "type": "uint256"
            },
            {
              "internalType": "address",
              "name": "tokenContractAddress",
              "type": "address"
            },
            {
              "internalType": "address payable",
              "name": "seller",
              "type": "address"
            },
            {
              "internalType": "address payable",
              "name": "owner",
              "type": "address"
            }
          ],
          "internalType": "struct HelloWorldMarket.Item[]",
          "name": "",
          "type": "tuple[]"
        }
      ],
      "stateMutability": "view",
      "type": "function"
    },
    {
      "inputs": [
        {
          "internalType": "address",
          "name": "",
          "type": "address"
        },
        {
          "internalType": "address",
          "name": "",
          "type": "address"
        },
        {
          "internalType": "uint256",
          "name": "",
          "type": "uint256"
        },
        {
          "internalType": "bytes",
          "name": "",
          "type": "bytes"
        }
      ],
      "name": "onERC721Received",
      "outputs": [
        {
          "internalType": "bytes4",
          "name": "",
          "type": "bytes4"
        }
      ],
      "stateMutability": "nonpayable",
      "type": "function"
    },
    {
      "inputs": [],
      "name": "owner",
      "outputs": [
        {
          "internalType": "address",
          "name": "",
          "type": "address"
        }
      ],
      "stateMutability": "view",
      "type": "function"
    },
    {
      "inputs": [],
      "name": "renounceOwnership",
      "outputs": [],
      "stateMutability": "nonpayable",
      "type": "function"
    },
    {
      "inputs": [
        {
          "internalType": "address",
          "name": "newOwner",
          "type": "address"
        }
      ],
      "name": "transferOwnership",
      "outputs": [],
      "stateMutability": "nonpayable",
      "type": "function"
    }
  ],
  "bytecode": "0x608060405234801561001057600080fd5b5061002d61002261003960201b60201c565b61004160201b60201c565b60018081905550610105565b600033905090565b60008060009054906101000a900473ffffffffffffffffffffffffffffffffffffffff169050816000806101000a81548173ffffffffffffffffffffffffffffffffffffffff021916908373ffffffffffffffffffffffffffffffffffffffff1602179055508173ffffffffffffffffffffffffffffffffffffffff168173ffffffffffffffffffffffffffffffffffffffff167f8be0079c531659141344cd1fd0a4f28419497f9722a3daafe3b4186f6b6457e060405160405180910390a35050565b611c40806101146000396000f3fe6080604052600436106100865760003560e01c80639f37092a116100595780639f37092a14610135578063c1b91dd914610151578063cd2f07101461016d578063cf502d15146101aa578063f2fde38b146101d557610086565b8063150b7a021461008b578063715018a6146100c85780638da5cb5b146100df5780639b8bc1271461010a575b600080fd5b34801561009757600080fd5b506100b260048036038101906100ad91906113a8565b6101fe565b6040516100bf9190611466565b60405180910390f35b3480156100d457600080fd5b506100dd610212565b005b3480156100eb57600080fd5b506100f461029a565b6040516101019190611490565b60405180910390f35b34801561011657600080fd5b5061011f6102c3565b60405161012c9190611614565b60405180910390f35b61014f600480360381019061014a9190611636565b610562565b005b61016b60048036038101906101669190611676565b610780565b005b34801561017957600080fd5b50610194600480360381019061018f91906116c9565b610adc565b6040516101a19190611771565b60405180910390f35b3480156101b657600080fd5b506101bf610c2f565b6040516101cc9190611614565b60405180910390f35b3480156101e157600080fd5b506101fc60048036038101906101f7919061178c565b610f5a565b005b600063150b7a0260e01b9050949350505050565b61021a611052565b73ffffffffffffffffffffffffffffffffffffffff1661023861029a565b73ffffffffffffffffffffffffffffffffffffffff161461028e576040517f08c379a000000000000000000000000000000000000000000000000000000000815260040161028590611816565b60405180910390fd5b610298600061105a565b565b60008060009054906101000a900473ffffffffffffffffffffffffffffffffffffffff16905090565b606060006102d1600361111e565b905060006102df600461111e565b826102ea9190611865565b90506000808267ffffffffffffffff8111156103095761030861127d565b5b60405190808252806020026020018201604052801561034257816020015b61032f611142565b8152602001906001900390816103275790505b50905060005b8481101561055757600073ffffffffffffffffffffffffffffffffffffffff16600260006001846103799190611899565b815260200190815260200160002060050160009054906101000a900473ffffffffffffffffffffffffffffffffffffffff1673ffffffffffffffffffffffffffffffffffffffff161415610544576000600260006001846103da9190611899565b81526020019081526020016000206040518060c00160405290816000820154815260200160018201548152602001600282015481526020016003820160009054906101000a900473ffffffffffffffffffffffffffffffffffffffff1673ffffffffffffffffffffffffffffffffffffffff1673ffffffffffffffffffffffffffffffffffffffff1681526020016004820160009054906101000a900473ffffffffffffffffffffffffffffffffffffffff1673ffffffffffffffffffffffffffffffffffffffff1673ffffffffffffffffffffffffffffffffffffffff1681526020016005820160009054906101000a900473ffffffffffffffffffffffffffffffffffffffff1673ffffffffffffffffffffffffffffffffffffffff1673ffffffffffffffffffffffffffffffffffffffff1681525050905080838581518110610529576105286118ef565b5b6020026020010181905250838061053f9061191e565b945050505b808061054f9061191e565b915050610348565b508094505050505090565b600260015414156105a8576040517f08c379a000000000000000000000000000000000000000000000000000000000815260040161059f906119b3565b60405180910390fd5b6002600181905550600060026000838152602001908152602001600020600201549050600060026000848152602001908152602001600020600101549050813414610628576040517f08c379a000000000000000000000000000000000000000000000000000000000815260040161061f90611a45565b60405180910390fd5b610632600461112c565b336002600085815260200190815260200160002060050160006101000a81548173ffffffffffffffffffffffffffffffffffffffff021916908373ffffffffffffffffffffffffffffffffffffffff1602179055506002600084815260200190815260200160002060040160009054906101000a900473ffffffffffffffffffffffffffffffffffffffff1673ffffffffffffffffffffffffffffffffffffffff166108fc349081150290604051600060405180830381858888f19350505050158015610703573d6000803e3d6000fd5b508373ffffffffffffffffffffffffffffffffffffffff166323b872dd3033846040518463ffffffff1660e01b815260040161074193929190611a74565b600060405180830381600087803b15801561075b57600080fd5b505af115801561076f573d6000803e3d6000fd5b505050505050600180819055505050565b610788611052565b73ffffffffffffffffffffffffffffffffffffffff166107a661029a565b73ffffffffffffffffffffffffffffffffffffffff16146107fc576040517f08c379a00000000000000000000000000000000000000000000000000000000081526004016107f390611816565b60405180910390fd5b60026001541415610842576040517f08c379a0000000000000000000000000000000000000000000000000000000008152600401610839906119b3565b60405180910390fd5b60026001819055506000811161088d576040517f08c379a000000000000000000000000000000000000000000000000000000000815260040161088490611af7565b60405180910390fd5b610897600361112c565b60006108a3600361111e565b90506040518060c001604052808281526020018481526020018381526020018573ffffffffffffffffffffffffffffffffffffffff1681526020013373ffffffffffffffffffffffffffffffffffffffff168152602001600073ffffffffffffffffffffffffffffffffffffffff168152506002600083815260200190815260200160002060008201518160000155602082015181600101556040820151816002015560608201518160030160006101000a81548173ffffffffffffffffffffffffffffffffffffffff021916908373ffffffffffffffffffffffffffffffffffffffff16021790555060808201518160040160006101000a81548173ffffffffffffffffffffffffffffffffffffffff021916908373ffffffffffffffffffffffffffffffffffffffff16021790555060a08201518160050160006101000a81548173ffffffffffffffffffffffffffffffffffffffff021916908373ffffffffffffffffffffffffffffffffffffffff1602179055509050508373ffffffffffffffffffffffffffffffffffffffff166342842e0e3330866040518463ffffffff1660e01b8152600401610a5b93929190611a74565b600060405180830381600087803b158015610a7557600080fd5b505af1158015610a89573d6000803e3d6000fd5b505050507f60648cf2e25329213edbfca4fb969efbe180f0495f21156cd5e47fdd874fba4781848487336000604051610ac796959493929190611b17565b60405180910390a15060018081905550505050565b610ae4611142565b6000600260008481526020019081526020016000206040518060c00160405290816000820154815260200160018201548152602001600282015481526020016003820160009054906101000a900473ffffffffffffffffffffffffffffffffffffffff1673ffffffffffffffffffffffffffffffffffffffff1673ffffffffffffffffffffffffffffffffffffffff1681526020016004820160009054906101000a900473ffffffffffffffffffffffffffffffffffffffff1673ffffffffffffffffffffffffffffffffffffffff1673ffffffffffffffffffffffffffffffffffffffff1681526020016005820160009054906101000a900473ffffffffffffffffffffffffffffffffffffffff1673ffffffffffffffffffffffffffffffffffffffff1673ffffffffffffffffffffffffffffffffffffffff1681525050905080915050919050565b60606000610c3d600361111e565b905060008060005b83811015610ce5573373ffffffffffffffffffffffffffffffffffffffff1660026000600184610c759190611899565b815260200190815260200160002060050160009054906101000a900473ffffffffffffffffffffffffffffffffffffffff1673ffffffffffffffffffffffffffffffffffffffff161415610cd2578280610cce9061191e565b9350505b8080610cdd9061191e565b915050610c45565b5060008267ffffffffffffffff811115610d0257610d0161127d565b5b604051908082528060200260200182016040528015610d3b57816020015b610d28611142565b815260200190600190039081610d205790505b50905060005b84811015610f4f573373ffffffffffffffffffffffffffffffffffffffff1660026000600184610d719190611899565b815260200190815260200160002060050160009054906101000a900473ffffffffffffffffffffffffffffffffffffffff1673ffffffffffffffffffffffffffffffffffffffff161415610f3c57600060026000600184610dd29190611899565b81526020019081526020016000206040518060c00160405290816000820154815260200160018201548152602001600282015481526020016003820160009054906101000a900473ffffffffffffffffffffffffffffffffffffffff1673ffffffffffffffffffffffffffffffffffffffff1673ffffffffffffffffffffffffffffffffffffffff1681526020016004820160009054906101000a900473ffffffffffffffffffffffffffffffffffffffff1673ffffffffffffffffffffffffffffffffffffffff1673ffffffffffffffffffffffffffffffffffffffff1681526020016005820160009054906101000a900473ffffffffffffffffffffffffffffffffffffffff1673ffffffffffffffffffffffffffffffffffffffff1673ffffffffffffffffffffffffffffffffffffffff1681525050905080838581518110610f2157610f206118ef565b5b60200260200101819052508380610f379061191e565b945050505b8080610f479061191e565b915050610d41565b508094505050505090565b610f62611052565b73ffffffffffffffffffffffffffffffffffffffff16610f8061029a565b73ffffffffffffffffffffffffffffffffffffffff1614610fd6576040517f08c379a0000000000000000000000000000000000000000000000000000000008152600401610fcd90611816565b60405180910390fd5b600073ffffffffffffffffffffffffffffffffffffffff168173ffffffffffffffffffffffffffffffffffffffff161415611046576040517f08c379a000000000000000000000000000000000000000000000000000000000815260040161103d90611bea565b60405180910390fd5b61104f8161105a565b50565b600033905090565b60008060009054906101000a900473ffffffffffffffffffffffffffffffffffffffff169050816000806101000a81548173ffffffffffffffffffffffffffffffffffffffff021916908373ffffffffffffffffffffffffffffffffffffffff1602179055508173ffffffffffffffffffffffffffffffffffffffff168173ffffffffffffffffffffffffffffffffffffffff167f8be0079c531659141344cd1fd0a4f28419497f9722a3daafe3b4186f6b6457e060405160405180910390a35050565b600081600001549050919050565b6001816000016000828254019250508190555050565b6040518060c00160405280600081526020016000815260200160008152602001600073ffffffffffffffffffffffffffffffffffffffff168152602001600073ffffffffffffffffffffffffffffffffffffffff168152602001600073ffffffffffffffffffffffffffffffffffffffff1681525090565b6000604051905090565b600080fd5b600080fd5b600073ffffffffffffffffffffffffffffffffffffffff82169050919050565b60006111f9826111ce565b9050919050565b611209816111ee565b811461121457600080fd5b50565b60008135905061122681611200565b92915050565b6000819050919050565b61123f8161122c565b811461124a57600080fd5b50565b60008135905061125c81611236565b92915050565b600080fd5b600080fd5b6000601f19601f8301169050919050565b7f4e487b7100000000000000000000000000000000000000000000000000000000600052604160045260246000fd5b6112b58261126c565b810181811067ffffffffffffffff821117156112d4576112d361127d565b5b80604052505050565b60006112e76111ba565b90506112f382826112ac565b919050565b600067ffffffffffffffff8211156113135761131261127d565b5b61131c8261126c565b9050602081019050919050565b82818337600083830152505050565b600061134b611346846112f8565b6112dd565b90508281526020810184848401111561136757611366611267565b5b611372848285611329565b509392505050565b600082601f83011261138f5761138e611262565b5b813561139f848260208601611338565b91505092915050565b600080600080608085870312156113c2576113c16111c4565b5b60006113d087828801611217565b94505060206113e187828801611217565b93505060406113f28782880161124d565b925050606085013567ffffffffffffffff811115611413576114126111c9565b5b61141f8782880161137a565b91505092959194509250565b60007fffffffff0000000000000000000000000000000000000000000000000000000082169050919050565b6114608161142b565b82525050565b600060208201905061147b6000830184611457565b92915050565b61148a816111ee565b82525050565b60006020820190506114a56000830184611481565b92915050565b600081519050919050565b600082825260208201905092915050565b6000819050602082019050919050565b6114e08161122c565b82525050565b6114ef816111ee565b82525050565b6000611500826111ce565b9050919050565b611510816114f5565b82525050565b60c08201600082015161152c60008501826114d7565b50602082015161153f60208501826114d7565b50604082015161155260408501826114d7565b50606082015161156560608501826114e6565b5060808201516115786080850182611507565b5060a082015161158b60a0850182611507565b50505050565b600061159d8383611516565b60c08301905092915050565b6000602082019050919050565b60006115c1826114ab565b6115cb81856114b6565b93506115d6836114c7565b8060005b838110156116075781516115ee8882611591565b97506115f9836115a9565b9250506001810190506115da565b5085935050505092915050565b6000602082019050818103600083015261162e81846115b6565b905092915050565b6000806040838503121561164d5761164c6111c4565b5b600061165b85828601611217565b925050602061166c8582860161124d565b9150509250929050565b60008060006060848603121561168f5761168e6111c4565b5b600061169d86828701611217565b93505060206116ae8682870161124d565b92505060406116bf8682870161124d565b9150509250925092565b6000602082840312156116df576116de6111c4565b5b60006116ed8482850161124d565b91505092915050565b60c08201600082015161170c60008501826114d7565b50602082015161171f60208501826114d7565b50604082015161173260408501826114d7565b50606082015161174560608501826114e6565b5060808201516117586080850182611507565b5060a082015161176b60a0850182611507565b50505050565b600060c08201905061178660008301846116f6565b92915050565b6000602082840312156117a2576117a16111c4565b5b60006117b084828501611217565b91505092915050565b600082825260208201905092915050565b7f4f776e61626c653a2063616c6c6572206973206e6f7420746865206f776e6572600082015250565b60006118006020836117b9565b915061180b826117ca565b602082019050919050565b6000602082019050818103600083015261182f816117f3565b9050919050565b7f4e487b7100000000000000000000000000000000000000000000000000000000600052601160045260246000fd5b60006118708261122c565b915061187b8361122c565b92508282101561188e5761188d611836565b5b828203905092915050565b60006118a48261122c565b91506118af8361122c565b9250827fffffffffffffffffffffffffffffffffffffffffffffffffffffffffffffffff038211156118e4576118e3611836565b5b828201905092915050565b7f4e487b7100000000000000000000000000000000000000000000000000000000600052603260045260246000fd5b60006119298261122c565b91507fffffffffffffffffffffffffffffffffffffffffffffffffffffffffffffffff82141561195c5761195b611836565b5b600182019050919050565b7f5265656e7472616e637947756172643a207265656e7472616e742063616c6c00600082015250565b600061199d601f836117b9565b91506119a882611967565b602082019050919050565b600060208201905081810360008301526119cc81611990565b9050919050565b7f506c656173652070757263686173652074686520636f7272656374207072696360008201527f652e000000000000000000000000000000000000000000000000000000000000602082015250565b6000611a2f6022836117b9565b9150611a3a826119d3565b604082019050919050565b60006020820190508181036000830152611a5e81611a22565b9050919050565b611a6e8161122c565b82525050565b6000606082019050611a896000830186611481565b611a966020830185611481565b611aa36040830184611a65565b949350505050565b7f5072696365206d757374206265206174206c656173742031207765692e000000600082015250565b6000611ae1601d836117b9565b9150611aec82611aab565b602082019050919050565b60006020820190508181036000830152611b1081611ad4565b9050919050565b600060c082019050611b2c6000830189611a65565b611b396020830188611a65565b611b466040830187611a65565b611b536060830186611481565b611b606080830185611481565b611b6d60a0830184611481565b979650505050505050565b7f4f776e61626c653a206e6577206f776e657220697320746865207a65726f206160008201527f6464726573730000000000000000000000000000000000000000000000000000602082015250565b6000611bd46026836117b9565b9150611bdf82611b78565b604082019050919050565b60006020820190508181036000830152611c0381611bc7565b905091905056fea264697066735822122026b6e56b87d56624550fe7febeccdb78465892e5af2f1723ee8b4be01c7312e664736f6c63430008090033",
  "linkReferences": {},
  "deployedLinkReferences": {}
}