{
  "_format": "hh-sol-artifact-1",
  "contractName": "HelloWorldToken",
  "sourceName": "contracts/HelloWorldToken.sol",
  "abi": [
    {
      "inputs": [
        {
          "internalType": "string",
          "name": "_newBaseURI",
          "type": "string"
        },
        {
          "internalType": "address",
          "name": "_marketContractAddress",
          "type": "address"
        }
      ],
      "stateMutability": "nonpayable",
      "type": "constructor"
    },
    {
      "anonymous": false,
      "inputs": [
        {
          "indexed": true,
          "internalType": "address",
          "name": "owner",
          "type": "address"
        },
        {
          "indexed": true,
          "internalType": "address",
          "name": "approved",
          "type": "address"
        },
        {
          "indexed": true,
          "internalType": "uint256",
          "name": "tokenId",
          "type": "uint256"
        }
      ],
      "name": "Approval",
      "type": "event"
    },
    {
      "anonymous": false,
      "inputs": [
        {
          "indexed": true,
          "internalType": "address",
          "name": "owner",
          "type": "address"
        },
        {
          "indexed": true,
          "internalType": "address",
          "name": "operator",
          "type": "address"
        },
        {
          "indexed": false,
          "internalType": "bool",
          "name": "approved",
          "type": "bool"
        }
      ],
      "name": "ApprovalForAll",
      "type": "event"
    },
    {
      "anonymous": false,
      "inputs": [
        {
          "indexed": true,
          "internalType": "address",
          "name": "previousOwner",
          "type": "address"
        },
        {
          "indexed": true,
          "internalType": "address",
          "name": "newOwner",
          "type": "address"
        }
      ],
      "name": "OwnershipTransferred",
      "type": "event"
    },
    {
      "anonymous": false,
      "inputs": [
        {
          "indexed": false,
          "internalType": "uint256",
          "name": "tokenId",
          "type": "uint256"
        },
        {
          "indexed": false,
          "internalType": "address",
          "name": "owner",
          "type": "address"
        },
        {
          "indexed": false,
          "internalType": "string",
          "name": "tokenURI",
          "type": "string"
        }
      ],
      "name": "TokenMinted",
      "type": "event"
    },
    {
      "anonymous": false,
      "inputs": [
        {
          "indexed": true,
          "internalType": "address",
          "name": "from",
          "type": "address"
        },
        {
          "indexed": true,
          "internalType": "address",
          "name": "to",
          "type": "address"
        },
        {
          "indexed": true,
          "internalType": "uint256",
          "name": "tokenId",
          "type": "uint256"
        }
      ],
      "name": "Transfer",
      "type": "event"
    },
    {
      "inputs": [
        {
          "internalType": "address",
          "name": "to",
          "type": "address"
        },
        {
          "internalType": "uint256",
          "name": "tokenId",
          "type": "uint256"
        }
      ],
      "name": "approve",
      "outputs": [],
      "stateMutability": "nonpayable",
      "type": "function"
    },
    {
      "inputs": [
        {
          "internalType": "address",
          "name": "owner",
          "type": "address"
        }
      ],
      "name": "balanceOf",
      "outputs": [
        {
          "internalType": "uint256",
          "name": "",
          "type": "uint256"
        }
      ],
      "stateMutability": "view",
      "type": "function"
    },
    {
      "inputs": [
        {
          "internalType": "uint256",
          "name": "tokenId",
          "type": "uint256"
        }
      ],
      "name": "getApproved",
      "outputs": [
        {
          "internalType": "address",
          "name": "",
          "type": "address"
        }
      ],
      "stateMutability": "view",
      "type": "function"
    },
    {
      "inputs": [],
      "name": "getBaseURI",
      "outputs": [
        {
          "internalType": "string",
          "name": "",
          "type": "string"
        }
      ],
      "stateMutability": "view",
      "type": "function"
    },
    {
      "inputs": [
        {
          "internalType": "address",
          "name": "owner",
          "type": "address"
        },
        {
          "internalType": "address",
          "name": "operator",
          "type": "address"
        }
      ],
      "name": "isApprovedForAll",
      "outputs": [
        {
          "internalType": "bool",
          "name": "",
          "type": "bool"
        }
      ],
      "stateMutability": "view",
      "type": "function"
    },
    {
      "inputs": [],
      "name": "marketContractAddress",
      "outputs": [
        {
          "internalType": "address",
          "name": "",
          "type": "address"
        }
      ],
      "stateMutability": "view",
      "type": "function"
    },
    {
      "inputs": [],
      "name": "maxSupply",
      "outputs": [
        {
          "internalType": "uint256",
          "name": "",
          "type": "uint256"
        }
      ],
      "stateMutability": "view",
      "type": "function"
    },
    {
      "inputs": [],
      "name": "mintCollection",
      "outputs": [],
      "stateMutability": "nonpayable",
      "type": "function"
    },
    {
      "inputs": [],
      "name": "name",
      "outputs": [
        {
          "internalType": "string",
          "name": "",
          "type": "string"
        }
      ],
      "stateMutability": "view",
      "type": "function"
    },
    {
      "inputs": [],
      "name": "owner",
      "outputs": [
        {
          "internalType": "address",
          "name": "",
          "type": "address"
        }
      ],
      "stateMutability": "view",
      "type": "function"
    },
    {
      "inputs": [
        {
          "internalType": "uint256",
          "name": "tokenId",
          "type": "uint256"
        }
      ],
      "name": "ownerOf",
      "outputs": [
        {
          "internalType": "address",
          "name": "",
          "type": "address"
        }
      ],
      "stateMutability": "view",
      "type": "function"
    },
    {
      "inputs": [],
      "name": "paused",
      "outputs": [
        {
          "internalType": "bool",
          "name": "",
          "type": "bool"
        }
      ],
      "stateMutability": "view",
      "type": "function"
    },
    {
      "inputs": [],
      "name": "renounceOwnership",
      "outputs": [],
      "stateMutability": "nonpayable",
      "type": "function"
    },
    {
      "inputs": [
        {
          "internalType": "address",
          "name": "from",
          "type": "address"
        },
        {
          "internalType": "address",
          "name": "to",
          "type": "address"
        },
        {
          "internalType": "uint256",
          "name": "tokenId",
          "type": "uint256"
        }
      ],
      "name": "safeTransferFrom",
      "outputs": [],
      "stateMutability": "nonpayable",
      "type": "function"
    },
    {
      "inputs": [
        {
          "internalType": "address",
          "name": "from",
          "type": "address"
        },
        {
          "internalType": "address",
          "name": "to",
          "type": "address"
        },
        {
          "internalType": "uint256",
          "name": "tokenId",
          "type": "uint256"
        },
        {
          "internalType": "bytes",
          "name": "_data",
          "type": "bytes"
        }
      ],
      "name": "safeTransferFrom",
      "outputs": [],
      "stateMutability": "nonpayable",
      "type": "function"
    },
    {
      "inputs": [
        {
          "internalType": "address",
          "name": "operator",
          "type": "address"
        },
        {
          "internalType": "bool",
          "name": "approved",
          "type": "bool"
        }
      ],
      "name": "setApprovalForAll",
      "outputs": [],
      "stateMutability": "nonpayable",
      "type": "function"
    },
    {
      "inputs": [
        {
          "internalType": "string",
          "name": "_newBaseURI",
          "type": "string"
        }
      ],
      "name": "setBaseURI",
      "outputs": [],
      "stateMutability": "nonpayable",
      "type": "function"
    },
    {
      "inputs": [
        {
          "internalType": "address",
          "name": "_marketContractAddress",
          "type": "address"
        }
      ],
      "name": "setMarketContractAddress",
      "outputs": [],
      "stateMutability": "nonpayable",
      "type": "function"
    },
    {
      "inputs": [
        {
          "internalType": "uint256",
          "name": "_maxSupply",
          "type": "uint256"
        }
      ],
      "name": "setMaxSupply",
      "outputs": [],
      "stateMutability": "nonpayable",
      "type": "function"
    },
    {
      "inputs": [
        {
          "internalType": "bool",
          "name": "_paused",
          "type": "bool"
        }
      ],
      "name": "setPaused",
      "outputs": [],
      "stateMutability": "nonpayable",
      "type": "function"
    },
    {
      "inputs": [
        {
          "internalType": "bytes4",
          "name": "interfaceId",
          "type": "bytes4"
        }
      ],
      "name": "supportsInterface",
      "outputs": [
        {
          "internalType": "bool",
          "name": "",
          "type": "bool"
        }
      ],
      "stateMutability": "view",
      "type": "function"
    },
    {
      "inputs": [],
      "name": "symbol",
      "outputs": [
        {
          "internalType": "string",
          "name": "",
          "type": "string"
        }
      ],
      "stateMutability": "view",
      "type": "function"
    },
    {
      "inputs": [
        {
          "internalType": "uint256",
          "name": "index",
          "type": "uint256"
        }
      ],
      "name": "tokenByIndex",
      "outputs": [
        {
          "internalType": "uint256",
          "name": "",
          "type": "uint256"
        }
      ],
      "stateMutability": "view",
      "type": "function"
    },
    {
      "inputs": [
        {
          "internalType": "address",
          "name": "owner",
          "type": "address"
        },
        {
          "internalType": "uint256",
          "name": "index",
          "type": "uint256"
        }
      ],
      "name": "tokenOfOwnerByIndex",
      "outputs": [
        {
          "internalType": "uint256",
          "name": "",
          "type": "uint256"
        }
      ],
      "stateMutability": "view",
      "type": "function"
    },
    {
      "inputs": [
        {
          "internalType": "uint256",
          "name": "tokenId",
          "type": "uint256"
        }
      ],
      "name": "tokenURI",
      "outputs": [
        {
          "internalType": "string",
          "name": "",
          "type": "string"
        }
      ],
      "stateMutability": "view",
      "type": "function"
    },
    {
      "inputs": [],
      "name": "totalSupply",
      "outputs": [
        {
          "internalType": "uint256",
          "name": "",
          "type": "uint256"
        }
      ],
      "stateMutability": "view",
      "type": "function"
    },
    {
      "inputs": [
        {
          "internalType": "address",
          "name": "from",
          "type": "address"
        },
        {
          "internalType": "address",
          "name": "to",
          "type": "address"
        },
        {
          "internalType": "uint256",
          "name": "tokenId",
          "type": "uint256"
        }
      ],
      "name": "transferFrom",
      "outputs": [],
      "stateMutability": "nonpayable",
      "type": "function"
    },
    {
      "inputs": [
        {
          "internalType": "address",
          "name": "newOwner",
          "type": "address"
        }
      ],
      "name": "transferOwnership",
      "outputs": [],
      "stateMutability": "nonpayable",
      "type": "function"
    }
  ],
  "bytecode": "0x60806040526005600c553480156200001657600080fd5b50604051620048003803806200480083398181016040528101906200003c9190620004de565b6040518060400160405280600b81526020017f48656c6c6f20576f726c640000000000000000000000000000000000000000008152506040518060400160405280600481526020017f44424857000000000000000000000000000000000000000000000000000000008152508160009080519060200190620000c09291906200022c565b508060019080519060200190620000d99291906200022c565b505050620000fc620000f06200015e60201b60201c565b6200016660201b60201c565b81600e9080519060200190620001149291906200022c565b5080600d60016101000a81548173ffffffffffffffffffffffffffffffffffffffff021916908373ffffffffffffffffffffffffffffffffffffffff1602179055505050620005a9565b600033905090565b6000600b60009054906101000a900473ffffffffffffffffffffffffffffffffffffffff16905081600b60006101000a81548173ffffffffffffffffffffffffffffffffffffffff021916908373ffffffffffffffffffffffffffffffffffffffff1602179055508173ffffffffffffffffffffffffffffffffffffffff168173ffffffffffffffffffffffffffffffffffffffff167f8be0079c531659141344cd1fd0a4f28419497f9722a3daafe3b4186f6b6457e060405160405180910390a35050565b8280546200023a9062000573565b90600052602060002090601f0160209004810192826200025e5760008555620002aa565b82601f106200027957805160ff1916838001178555620002aa565b82800160010185558215620002aa579182015b82811115620002a95782518255916020019190600101906200028c565b5b509050620002b99190620002bd565b5090565b5b80821115620002d8576000816000905550600101620002be565b5090565b6000604051905090565b600080fd5b600080fd5b600080fd5b600080fd5b6000601f19601f8301169050919050565b7f4e487b7100000000000000000000000000000000000000000000000000000000600052604160045260246000fd5b6200034582620002fa565b810181811067ffffffffffffffff821117156200036757620003666200030b565b5b80604052505050565b60006200037c620002dc565b90506200038a82826200033a565b919050565b600067ffffffffffffffff821115620003ad57620003ac6200030b565b5b620003b882620002fa565b9050602081019050919050565b60005b83811015620003e5578082015181840152602081019050620003c8565b83811115620003f5576000848401525b50505050565b6000620004126200040c846200038f565b62000370565b905082815260208101848484011115620004315762000430620002f5565b5b6200043e848285620003c5565b509392505050565b600082601f8301126200045e576200045d620002f0565b5b815162000470848260208601620003fb565b91505092915050565b600073ffffffffffffffffffffffffffffffffffffffff82169050919050565b6000620004a68262000479565b9050919050565b620004b88162000499565b8114620004c457600080fd5b50565b600081519050620004d881620004ad565b92915050565b60008060408385031215620004f857620004f7620002e6565b5b600083015167ffffffffffffffff811115620005195762000518620002eb565b5b620005278582860162000446565b92505060206200053a85828601620004c7565b9150509250929050565b7f4e487b7100000000000000000000000000000000000000000000000000000000600052602260045260246000fd5b600060028204905060018216806200058c57607f821691505b60208210811415620005a357620005a262000544565b5b50919050565b61424780620005b96000396000f3fe608060405234801561001057600080fd5b50600436106101c45760003560e01c80636f8b44b0116100f9578063a22cb46511610097578063c87b56dd11610071578063c87b56dd146104cb578063d5abeb01146104fb578063e985e9c514610519578063f2fde38b14610549576101c4565b8063a22cb46514610477578063b88d4fde14610493578063c73358de146104af576101c4565b8063715018a6116100d3578063715018a61461042757806381cb3082146104315780638da5cb5b1461043b57806395d89b4114610459576101c4565b80636f8b44b0146103bd57806370a08231146103d9578063714c539814610409576101c4565b80632f745c59116101665780634f6ccce7116101405780634f6ccce71461032357806355f804b3146103535780635c975abb1461036f5780636352211e1461038d576101c4565b80632f745c59146102b95780633087cbe3146102e957806342842e0e14610307576101c4565b8063095ea7b3116101a2578063095ea7b31461024757806316c38b3c1461026357806318160ddd1461027f57806323b872dd1461029d576101c4565b806301ffc9a7146101c957806306fdde03146101f9578063081812fc14610217575b600080fd5b6101e360048036038101906101de9190612bbc565b610565565b6040516101f09190612c04565b60405180910390f35b610201610577565b60405161020e9190612cb8565b60405180910390f35b610231600480360381019061022c9190612d10565b610609565b60405161023e9190612d7e565b60405180910390f35b610261600480360381019061025c9190612dc5565b61068e565b005b61027d60048036038101906102789190612e31565b6107a6565b005b61028761083f565b6040516102949190612e6d565b60405180910390f35b6102b760048036038101906102b29190612e88565b61084c565b005b6102d360048036038101906102ce9190612dc5565b6108ac565b6040516102e09190612e6d565b60405180910390f35b6102f1610951565b6040516102fe9190612d7e565b60405180910390f35b610321600480360381019061031c9190612e88565b610977565b005b61033d60048036038101906103389190612d10565b610997565b60405161034a9190612e6d565b60405180910390f35b61036d60048036038101906103689190613010565b610a08565b005b610377610a9e565b6040516103849190612c04565b60405180910390f35b6103a760048036038101906103a29190612d10565b610ab1565b6040516103b49190612d7e565b60405180910390f35b6103d760048036038101906103d29190612d10565b610b63565b005b6103f360048036038101906103ee9190613059565b610be9565b6040516104009190612e6d565b60405180910390f35b610411610ca1565b60405161041e9190612cb8565b60405180910390f35b61042f610daf565b005b610439610e37565b005b610443611169565b6040516104509190612d7e565b60405180910390f35b610461611193565b60405161046e9190612cb8565b60405180910390f35b610491600480360381019061048c9190613086565b611225565b005b6104ad60048036038101906104a89190613167565b61123b565b005b6104c960048036038101906104c49190613059565b61129d565b005b6104e560048036038101906104e09190612d10565b6113cd565b6040516104f29190612cb8565b60405180910390f35b6105036113df565b6040516105109190612e6d565b60405180910390f35b610533600480360381019061052e91906131ea565b6113e5565b6040516105409190612c04565b60405180910390f35b610563600480360381019061055e9190613059565b611479565b005b600061057082611571565b9050919050565b60606000805461058690613259565b80601f01602080910402602001604051908101604052809291908181526020018280546105b290613259565b80156105ff5780601f106105d4576101008083540402835291602001916105ff565b820191906000526020600020905b8154815290600101906020018083116105e257829003601f168201915b5050505050905090565b6000610614826115eb565b610653576040517f08c379a000000000000000000000000000000000000000000000000000000000815260040161064a906132fd565b60405180910390fd5b6004600083815260200190815260200160002060009054906101000a900473ffffffffffffffffffffffffffffffffffffffff169050919050565b600061069982610ab1565b90508073ffffffffffffffffffffffffffffffffffffffff168373ffffffffffffffffffffffffffffffffffffffff16141561070a576040517f08c379a00000000000000000000000000000000000000000000000000000000081526004016107019061338f565b60405180910390fd5b8073ffffffffffffffffffffffffffffffffffffffff16610729611657565b73ffffffffffffffffffffffffffffffffffffffff161480610758575061075781610752611657565b6113e5565b5b610797576040517f08c379a000000000000000000000000000000000000000000000000000000000815260040161078e90613421565b60405180910390fd5b6107a1838361165f565b505050565b6107ae611657565b73ffffffffffffffffffffffffffffffffffffffff166107cc611169565b73ffffffffffffffffffffffffffffffffffffffff1614610822576040517f08c379a00000000000000000000000000000000000000000000000000000000081526004016108199061348d565b60405180910390fd5b80600d60006101000a81548160ff02191690831515021790555050565b6000600880549050905090565b61085d610857611657565b82611718565b61089c576040517f08c379a00000000000000000000000000000000000000000000000000000000081526004016108939061351f565b60405180910390fd5b6108a78383836117f6565b505050565b60006108b783610be9565b82106108f8576040517f08c379a00000000000000000000000000000000000000000000000000000000081526004016108ef906135b1565b60405180910390fd5b600660008473ffffffffffffffffffffffffffffffffffffffff1673ffffffffffffffffffffffffffffffffffffffff168152602001908152602001600020600083815260200190815260200160002054905092915050565b600d60019054906101000a900473ffffffffffffffffffffffffffffffffffffffff1681565b6109928383836040518060200160405280600081525061123b565b505050565b60006109a161083f565b82106109e2576040517f08c379a00000000000000000000000000000000000000000000000000000000081526004016109d990613643565b60405180910390fd5b600882815481106109f6576109f5613663565b5b90600052602060002001549050919050565b610a10611657565b73ffffffffffffffffffffffffffffffffffffffff16610a2e611169565b73ffffffffffffffffffffffffffffffffffffffff1614610a84576040517f08c379a0000000000000000000000000000000000000000000000000000000008152600401610a7b9061348d565b60405180910390fd5b80600e9080519060200190610a9a929190612aad565b5050565b600d60009054906101000a900460ff1681565b6000806002600084815260200190815260200160002060009054906101000a900473ffffffffffffffffffffffffffffffffffffffff169050600073ffffffffffffffffffffffffffffffffffffffff168173ffffffffffffffffffffffffffffffffffffffff161415610b5a576040517f08c379a0000000000000000000000000000000000000000000000000000000008152600401610b5190613704565b60405180910390fd5b80915050919050565b610b6b611657565b73ffffffffffffffffffffffffffffffffffffffff16610b89611169565b73ffffffffffffffffffffffffffffffffffffffff1614610bdf576040517f08c379a0000000000000000000000000000000000000000000000000000000008152600401610bd69061348d565b60405180910390fd5b80600c8190555050565b60008073ffffffffffffffffffffffffffffffffffffffff168273ffffffffffffffffffffffffffffffffffffffff161415610c5a576040517f08c379a0000000000000000000000000000000000000000000000000000000008152600401610c5190613796565b60405180910390fd5b600360008373ffffffffffffffffffffffffffffffffffffffff1673ffffffffffffffffffffffffffffffffffffffff168152602001908152602001600020549050919050565b6060610cab611657565b73ffffffffffffffffffffffffffffffffffffffff16610cc9611169565b73ffffffffffffffffffffffffffffffffffffffff1614610d1f576040517f08c379a0000000000000000000000000000000000000000000000000000000008152600401610d169061348d565b60405180910390fd5b600e8054610d2c90613259565b80601f0160208091040260200160405190810160405280929190818152602001828054610d5890613259565b8015610da55780601f10610d7a57610100808354040283529160200191610da5565b820191906000526020600020905b815481529060010190602001808311610d8857829003601f168201915b5050505050905090565b610db7611657565b73ffffffffffffffffffffffffffffffffffffffff16610dd5611169565b73ffffffffffffffffffffffffffffffffffffffff1614610e2b576040517f08c379a0000000000000000000000000000000000000000000000000000000008152600401610e229061348d565b60405180910390fd5b610e356000611a52565b565b610e3f611657565b73ffffffffffffffffffffffffffffffffffffffff16610e5d611169565b73ffffffffffffffffffffffffffffffffffffffff1614610eb3576040517f08c379a0000000000000000000000000000000000000000000000000000000008152600401610eaa9061348d565b60405180910390fd5b6000610ebd61083f565b905060006040518060a001604052806040518060400160405280601281526020017f68656c6c6f776f726c642d63682e6a736f6e000000000000000000000000000081525081526020016040518060400160405280601281526020017f68656c6c6f776f726c642d656e2e6a736f6e000000000000000000000000000081525081526020016040518060400160405280601281526020017f68656c6c6f776f726c642d66722e6a736f6e000000000000000000000000000081525081526020016040518060400160405280601281526020017f68656c6c6f776f726c642d6a702e6a736f6e000000000000000000000000000081525081526020016040518060400160405280601281526020017f68656c6c6f776f726c642d766e2e6a736f6e00000000000000000000000000008152508152509050600d60009054906101000a900460ff1615611043576040517f08c379a000000000000000000000000000000000000000000000000000000000815260040161103a90613802565b60405180910390fd5b600c548210611087576040517f08c379a000000000000000000000000000000000000000000000000000000000815260040161107e9061386e565b60405180910390fd5b60005b600581101561113757828061109e906138bd565b93505060008390506110b03382611b18565b6110d1818484600581106110c7576110c6613663565b5b6020020151611b36565b7fec2cd236ed6d37bf5a71276ac93889db12834493a090efd543a3d2eca8dcdcc8813385856005811061110757611106613663565b5b602002015160405161111b93929190613906565b60405180910390a150808061112f906138bd565b91505061108a565b50611165600d60019054906101000a900473ffffffffffffffffffffffffffffffffffffffff166001611225565b5050565b6000600b60009054906101000a900473ffffffffffffffffffffffffffffffffffffffff16905090565b6060600180546111a290613259565b80601f01602080910402602001604051908101604052809291908181526020018280546111ce90613259565b801561121b5780601f106111f05761010080835404028352916020019161121b565b820191906000526020600020905b8154815290600101906020018083116111fe57829003601f168201915b5050505050905090565b611237611230611657565b8383611baa565b5050565b61124c611246611657565b83611718565b61128b576040517f08c379a00000000000000000000000000000000000000000000000000000000081526004016112829061351f565b60405180910390fd5b61129784848484611d17565b50505050565b6112a5611657565b73ffffffffffffffffffffffffffffffffffffffff166112c3611169565b73ffffffffffffffffffffffffffffffffffffffff1614611319576040517f08c379a00000000000000000000000000000000000000000000000000000000081526004016113109061348d565b60405180910390fd5b600073ffffffffffffffffffffffffffffffffffffffff168173ffffffffffffffffffffffffffffffffffffffff161415611389576040517f08c379a000000000000000000000000000000000000000000000000000000000815260040161138090613990565b60405180910390fd5b80600d60016101000a81548173ffffffffffffffffffffffffffffffffffffffff021916908373ffffffffffffffffffffffffffffffffffffffff16021790555050565b60606113d882611d73565b9050919050565b600c5481565b6000600560008473ffffffffffffffffffffffffffffffffffffffff1673ffffffffffffffffffffffffffffffffffffffff16815260200190815260200160002060008373ffffffffffffffffffffffffffffffffffffffff1673ffffffffffffffffffffffffffffffffffffffff16815260200190815260200160002060009054906101000a900460ff16905092915050565b611481611657565b73ffffffffffffffffffffffffffffffffffffffff1661149f611169565b73ffffffffffffffffffffffffffffffffffffffff16146114f5576040517f08c379a00000000000000000000000000000000000000000000000000000000081526004016114ec9061348d565b60405180910390fd5b600073ffffffffffffffffffffffffffffffffffffffff168173ffffffffffffffffffffffffffffffffffffffff161415611565576040517f08c379a000000000000000000000000000000000000000000000000000000000815260040161155c90613a22565b60405180910390fd5b61156e81611a52565b50565b60007f780e9d63000000000000000000000000000000000000000000000000000000007bffffffffffffffffffffffffffffffffffffffffffffffffffffffff1916827bffffffffffffffffffffffffffffffffffffffffffffffffffffffff191614806115e457506115e382611ec5565b5b9050919050565b60008073ffffffffffffffffffffffffffffffffffffffff166002600084815260200190815260200160002060009054906101000a900473ffffffffffffffffffffffffffffffffffffffff1673ffffffffffffffffffffffffffffffffffffffff1614159050919050565b600033905090565b816004600083815260200190815260200160002060006101000a81548173ffffffffffffffffffffffffffffffffffffffff021916908373ffffffffffffffffffffffffffffffffffffffff160217905550808273ffffffffffffffffffffffffffffffffffffffff166116d283610ab1565b73ffffffffffffffffffffffffffffffffffffffff167f8c5be1e5ebec7d5bd14f71427d1e84f3dd0314c0f7b2291e5b200ac8c7c3b92560405160405180910390a45050565b6000611723826115eb565b611762576040517f08c379a000000000000000000000000000000000000000000000000000000000815260040161175990613ab4565b60405180910390fd5b600061176d83610ab1565b90508073ffffffffffffffffffffffffffffffffffffffff168473ffffffffffffffffffffffffffffffffffffffff1614806117dc57508373ffffffffffffffffffffffffffffffffffffffff166117c484610609565b73ffffffffffffffffffffffffffffffffffffffff16145b806117ed57506117ec81856113e5565b5b91505092915050565b8273ffffffffffffffffffffffffffffffffffffffff1661181682610ab1565b73ffffffffffffffffffffffffffffffffffffffff161461186c576040517f08c379a000000000000000000000000000000000000000000000000000000000815260040161186390613b46565b60405180910390fd5b600073ffffffffffffffffffffffffffffffffffffffff168273ffffffffffffffffffffffffffffffffffffffff1614156118dc576040517f08c379a00000000000000000000000000000000000000000000000000000000081526004016118d390613bd8565b60405180910390fd5b6118e7838383611fa7565b6118f260008261165f565b6001600360008573ffffffffffffffffffffffffffffffffffffffff1673ffffffffffffffffffffffffffffffffffffffff16815260200190815260200160002060008282546119429190613bf8565b925050819055506001600360008473ffffffffffffffffffffffffffffffffffffffff1673ffffffffffffffffffffffffffffffffffffffff16815260200190815260200160002060008282546119999190613c2c565b92505081905550816002600083815260200190815260200160002060006101000a81548173ffffffffffffffffffffffffffffffffffffffff021916908373ffffffffffffffffffffffffffffffffffffffff160217905550808273ffffffffffffffffffffffffffffffffffffffff168473ffffffffffffffffffffffffffffffffffffffff167fddf252ad1be2c89b69c2b068fc378daa952ba7f163c4a11628f55a4df523b3ef60405160405180910390a4505050565b6000600b60009054906101000a900473ffffffffffffffffffffffffffffffffffffffff16905081600b60006101000a81548173ffffffffffffffffffffffffffffffffffffffff021916908373ffffffffffffffffffffffffffffffffffffffff1602179055508173ffffffffffffffffffffffffffffffffffffffff168173ffffffffffffffffffffffffffffffffffffffff167f8be0079c531659141344cd1fd0a4f28419497f9722a3daafe3b4186f6b6457e060405160405180910390a35050565b611b32828260405180602001604052806000815250611fb7565b5050565b611b3f826115eb565b611b7e576040517f08c379a0000000000000000000000000000000000000000000000000000000008152600401611b7590613cf4565b60405180910390fd5b80600a60008481526020019081526020016000209080519060200190611ba5929190612aad565b505050565b8173ffffffffffffffffffffffffffffffffffffffff168373ffffffffffffffffffffffffffffffffffffffff161415611c19576040517f08c379a0000000000000000000000000000000000000000000000000000000008152600401611c1090613d60565b60405180910390fd5b80600560008573ffffffffffffffffffffffffffffffffffffffff1673ffffffffffffffffffffffffffffffffffffffff16815260200190815260200160002060008473ffffffffffffffffffffffffffffffffffffffff1673ffffffffffffffffffffffffffffffffffffffff16815260200190815260200160002060006101000a81548160ff0219169083151502179055508173ffffffffffffffffffffffffffffffffffffffff168373ffffffffffffffffffffffffffffffffffffffff167f17307eab39ab6107e8899845ad3d59bd9653f200f220920489ca2b5937696c3183604051611d0a9190612c04565b60405180910390a3505050565b611d228484846117f6565b611d2e84848484612012565b611d6d576040517f08c379a0000000000000000000000000000000000000000000000000000000008152600401611d6490613df2565b60405180910390fd5b50505050565b6060611d7e826115eb565b611dbd576040517f08c379a0000000000000000000000000000000000000000000000000000000008152600401611db490613e84565b60405180910390fd5b6000600a60008481526020019081526020016000208054611ddd90613259565b80601f0160208091040260200160405190810160405280929190818152602001828054611e0990613259565b8015611e565780601f10611e2b57610100808354040283529160200191611e56565b820191906000526020600020905b815481529060010190602001808311611e3957829003601f168201915b505050505090506000611e676121a9565b9050600081511415611e7d578192505050611ec0565b600082511115611eb2578082604051602001611e9a929190613ee0565b60405160208183030381529060405292505050611ec0565b611ebb8461223b565b925050505b919050565b60007f80ac58cd000000000000000000000000000000000000000000000000000000007bffffffffffffffffffffffffffffffffffffffffffffffffffffffff1916827bffffffffffffffffffffffffffffffffffffffffffffffffffffffff19161480611f9057507f5b5e139f000000000000000000000000000000000000000000000000000000007bffffffffffffffffffffffffffffffffffffffffffffffffffffffff1916827bffffffffffffffffffffffffffffffffffffffffffffffffffffffff1916145b80611fa05750611f9f826122e2565b5b9050919050565b611fb283838361234c565b505050565b611fc18383612460565b611fce6000848484612012565b61200d576040517f08c379a000000000000000000000000000000000000000000000000000000000815260040161200490613df2565b60405180910390fd5b505050565b60006120338473ffffffffffffffffffffffffffffffffffffffff1661262e565b1561219c578373ffffffffffffffffffffffffffffffffffffffff1663150b7a0261205c611657565b8786866040518563ffffffff1660e01b815260040161207e9493929190613f59565b602060405180830381600087803b15801561209857600080fd5b505af19250505080156120c957506040513d601f19601f820116820180604052508101906120c69190613fba565b60015b61214c573d80600081146120f9576040519150601f19603f3d011682016040523d82523d6000602084013e6120fe565b606091505b50600081511415612144576040517f08c379a000000000000000000000000000000000000000000000000000000000815260040161213b90613df2565b60405180910390fd5b805181602001fd5b63150b7a0260e01b7bffffffffffffffffffffffffffffffffffffffffffffffffffffffff1916817bffffffffffffffffffffffffffffffffffffffffffffffffffffffff1916149150506121a1565b600190505b949350505050565b6060600e80546121b890613259565b80601f01602080910402602001604051908101604052809291908181526020018280546121e490613259565b80156122315780601f1061220657610100808354040283529160200191612231565b820191906000526020600020905b81548152906001019060200180831161221457829003601f168201915b5050505050905090565b6060612246826115eb565b612285576040517f08c379a000000000000000000000000000000000000000000000000000000000815260040161227c90614059565b60405180910390fd5b600061228f6121a9565b905060008151116122af57604051806020016040528060008152506122da565b806122b984612641565b6040516020016122ca929190613ee0565b6040516020818303038152906040525b915050919050565b60007f01ffc9a7000000000000000000000000000000000000000000000000000000007bffffffffffffffffffffffffffffffffffffffffffffffffffffffff1916827bffffffffffffffffffffffffffffffffffffffffffffffffffffffff1916149050919050565b6123578383836127a2565b600073ffffffffffffffffffffffffffffffffffffffff168373ffffffffffffffffffffffffffffffffffffffff16141561239a57612395816127a7565b6123d9565b8173ffffffffffffffffffffffffffffffffffffffff168373ffffffffffffffffffffffffffffffffffffffff16146123d8576123d783826127f0565b5b5b600073ffffffffffffffffffffffffffffffffffffffff168273ffffffffffffffffffffffffffffffffffffffff16141561241c576124178161295d565b61245b565b8273ffffffffffffffffffffffffffffffffffffffff168273ffffffffffffffffffffffffffffffffffffffff161461245a576124598282612a2e565b5b5b505050565b600073ffffffffffffffffffffffffffffffffffffffff168273ffffffffffffffffffffffffffffffffffffffff1614156124d0576040517f08c379a00000000000000000000000000000000000000000000000000000000081526004016124c7906140c5565b60405180910390fd5b6124d9816115eb565b15612519576040517f08c379a000000000000000000000000000000000000000000000000000000000815260040161251090614131565b60405180910390fd5b61252560008383611fa7565b6001600360008473ffffffffffffffffffffffffffffffffffffffff1673ffffffffffffffffffffffffffffffffffffffff16815260200190815260200160002060008282546125759190613c2c565b92505081905550816002600083815260200190815260200160002060006101000a81548173ffffffffffffffffffffffffffffffffffffffff021916908373ffffffffffffffffffffffffffffffffffffffff160217905550808273ffffffffffffffffffffffffffffffffffffffff16600073ffffffffffffffffffffffffffffffffffffffff167fddf252ad1be2c89b69c2b068fc378daa952ba7f163c4a11628f55a4df523b3ef60405160405180910390a45050565b600080823b905060008111915050919050565b60606000821415612689576040518060400160405280600181526020017f3000000000000000000000000000000000000000000000000000000000000000815250905061279d565b600082905060005b600082146126bb5780806126a4906138bd565b915050600a826126b49190614180565b9150612691565b60008167ffffffffffffffff8111156126d7576126d6612ee5565b5b6040519080825280601f01601f1916602001820160405280156127095781602001600182028036833780820191505090505b5090505b60008514612796576001826127229190613bf8565b9150600a8561273191906141b1565b603061273d9190613c2c565b60f81b81838151811061275357612752613663565b5b60200101907effffffffffffffffffffffffffffffffffffffffffffffffffffffffffffff1916908160001a905350600a8561278f9190614180565b945061270d565b8093505050505b919050565b505050565b6008805490506009600083815260200190815260200160002081905550600881908060018154018082558091505060019003906000526020600020016000909190919091505550565b600060016127fd84610be9565b6128079190613bf8565b90506000600760008481526020019081526020016000205490508181146128ec576000600660008673ffffffffffffffffffffffffffffffffffffffff1673ffffffffffffffffffffffffffffffffffffffff168152602001908152602001600020600084815260200190815260200160002054905080600660008773ffffffffffffffffffffffffffffffffffffffff1673ffffffffffffffffffffffffffffffffffffffff168152602001908152602001600020600084815260200190815260200160002081905550816007600083815260200190815260200160002081905550505b6007600084815260200190815260200160002060009055600660008573ffffffffffffffffffffffffffffffffffffffff1673ffffffffffffffffffffffffffffffffffffffff16815260200190815260200160002060008381526020019081526020016000206000905550505050565b600060016008805490506129719190613bf8565b90506000600960008481526020019081526020016000205490506000600883815481106129a1576129a0613663565b5b9060005260206000200154905080600883815481106129c3576129c2613663565b5b906000526020600020018190555081600960008381526020019081526020016000208190555060096000858152602001908152602001600020600090556008805480612a1257612a116141e2565b5b6001900381819060005260206000200160009055905550505050565b6000612a3983610be9565b905081600660008573ffffffffffffffffffffffffffffffffffffffff1673ffffffffffffffffffffffffffffffffffffffff168152602001908152602001600020600083815260200190815260200160002081905550806007600084815260200190815260200160002081905550505050565b828054612ab990613259565b90600052602060002090601f016020900481019282612adb5760008555612b22565b82601f10612af457805160ff1916838001178555612b22565b82800160010185558215612b22579182015b82811115612b21578251825591602001919060010190612b06565b5b509050612b2f9190612b33565b5090565b5b80821115612b4c576000816000905550600101612b34565b5090565b6000604051905090565b600080fd5b600080fd5b60007fffffffff0000000000000000000000000000000000000000000000000000000082169050919050565b612b9981612b64565b8114612ba457600080fd5b50565b600081359050612bb681612b90565b92915050565b600060208284031215612bd257612bd1612b5a565b5b6000612be084828501612ba7565b91505092915050565b60008115159050919050565b612bfe81612be9565b82525050565b6000602082019050612c196000830184612bf5565b92915050565b600081519050919050565b600082825260208201905092915050565b60005b83811015612c59578082015181840152602081019050612c3e565b83811115612c68576000848401525b50505050565b6000601f19601f8301169050919050565b6000612c8a82612c1f565b612c948185612c2a565b9350612ca4818560208601612c3b565b612cad81612c6e565b840191505092915050565b60006020820190508181036000830152612cd28184612c7f565b905092915050565b6000819050919050565b612ced81612cda565b8114612cf857600080fd5b50565b600081359050612d0a81612ce4565b92915050565b600060208284031215612d2657612d25612b5a565b5b6000612d3484828501612cfb565b91505092915050565b600073ffffffffffffffffffffffffffffffffffffffff82169050919050565b6000612d6882612d3d565b9050919050565b612d7881612d5d565b82525050565b6000602082019050612d936000830184612d6f565b92915050565b612da281612d5d565b8114612dad57600080fd5b50565b600081359050612dbf81612d99565b92915050565b60008060408385031215612ddc57612ddb612b5a565b5b6000612dea85828601612db0565b9250506020612dfb85828601612cfb565b9150509250929050565b612e0e81612be9565b8114612e1957600080fd5b50565b600081359050612e2b81612e05565b92915050565b600060208284031215612e4757612e46612b5a565b5b6000612e5584828501612e1c565b91505092915050565b612e6781612cda565b82525050565b6000602082019050612e826000830184612e5e565b92915050565b600080600060608486031215612ea157612ea0612b5a565b5b6000612eaf86828701612db0565b9350506020612ec086828701612db0565b9250506040612ed186828701612cfb565b9150509250925092565b600080fd5b600080fd5b7f4e487b7100000000000000000000000000000000000000000000000000000000600052604160045260246000fd5b612f1d82612c6e565b810181811067ffffffffffffffff82111715612f3c57612f3b612ee5565b5b80604052505050565b6000612f4f612b50565b9050612f5b8282612f14565b919050565b600067ffffffffffffffff821115612f7b57612f7a612ee5565b5b612f8482612c6e565b9050602081019050919050565b82818337600083830152505050565b6000612fb3612fae84612f60565b612f45565b905082815260208101848484011115612fcf57612fce612ee0565b5b612fda848285612f91565b509392505050565b600082601f830112612ff757612ff6612edb565b5b8135613007848260208601612fa0565b91505092915050565b60006020828403121561302657613025612b5a565b5b600082013567ffffffffffffffff81111561304457613043612b5f565b5b61305084828501612fe2565b91505092915050565b60006020828403121561306f5761306e612b5a565b5b600061307d84828501612db0565b91505092915050565b6000806040838503121561309d5761309c612b5a565b5b60006130ab85828601612db0565b92505060206130bc85828601612e1c565b9150509250929050565b600067ffffffffffffffff8211156130e1576130e0612ee5565b5b6130ea82612c6e565b9050602081019050919050565b600061310a613105846130c6565b612f45565b90508281526020810184848401111561312657613125612ee0565b5b613131848285612f91565b509392505050565b600082601f83011261314e5761314d612edb565b5b813561315e8482602086016130f7565b91505092915050565b6000806000806080858703121561318157613180612b5a565b5b600061318f87828801612db0565b94505060206131a087828801612db0565b93505060406131b187828801612cfb565b925050606085013567ffffffffffffffff8111156131d2576131d1612b5f565b5b6131de87828801613139565b91505092959194509250565b6000806040838503121561320157613200612b5a565b5b600061320f85828601612db0565b925050602061322085828601612db0565b9150509250929050565b7f4e487b7100000000000000000000000000000000000000000000000000000000600052602260045260246000fd5b6000600282049050600182168061327157607f821691505b602082108114156132855761328461322a565b5b50919050565b7f4552433732313a20617070726f76656420717565727920666f72206e6f6e657860008201527f697374656e7420746f6b656e0000000000000000000000000000000000000000602082015250565b60006132e7602c83612c2a565b91506132f28261328b565b604082019050919050565b60006020820190508181036000830152613316816132da565b9050919050565b7f4552433732313a20617070726f76616c20746f2063757272656e74206f776e6560008201527f7200000000000000000000000000000000000000000000000000000000000000602082015250565b6000613379602183612c2a565b91506133848261331d565b604082019050919050565b600060208201905081810360008301526133a88161336c565b9050919050565b7f4552433732313a20617070726f76652063616c6c6572206973206e6f74206f7760008201527f6e6572206e6f7220617070726f76656420666f7220616c6c0000000000000000602082015250565b600061340b603883612c2a565b9150613416826133af565b604082019050919050565b6000602082019050818103600083015261343a816133fe565b9050919050565b7f4f776e61626c653a2063616c6c6572206973206e6f7420746865206f776e6572600082015250565b6000613477602083612c2a565b915061348282613441565b602082019050919050565b600060208201905081810360008301526134a68161346a565b9050919050565b7f4552433732313a207472616e736665722063616c6c6572206973206e6f74206f60008201527f776e6572206e6f7220617070726f766564000000000000000000000000000000602082015250565b6000613509603183612c2a565b9150613514826134ad565b604082019050919050565b60006020820190508181036000830152613538816134fc565b9050919050565b7f455243373231456e756d657261626c653a206f776e657220696e646578206f7560008201527f74206f6620626f756e6473000000000000000000000000000000000000000000602082015250565b600061359b602b83612c2a565b91506135a68261353f565b604082019050919050565b600060208201905081810360008301526135ca8161358e565b9050919050565b7f455243373231456e756d657261626c653a20676c6f62616c20696e646578206f60008201527f7574206f6620626f756e64730000000000000000000000000000000000000000602082015250565b600061362d602c83612c2a565b9150613638826135d1565b604082019050919050565b6000602082019050818103600083015261365c81613620565b9050919050565b7f4e487b7100000000000000000000000000000000000000000000000000000000600052603260045260246000fd5b7f4552433732313a206f776e657220717565727920666f72206e6f6e657869737460008201527f656e7420746f6b656e0000000000000000000000000000000000000000000000602082015250565b60006136ee602983612c2a565b91506136f982613692565b604082019050919050565b6000602082019050818103600083015261371d816136e1565b9050919050565b7f4552433732313a2062616c616e636520717565727920666f7220746865207a6560008201527f726f206164647265737300000000000000000000000000000000000000000000602082015250565b6000613780602a83612c2a565b915061378b82613724565b604082019050919050565b600060208201905081810360008301526137af81613773565b9050919050565b7f4d696e74696e67206973207061757365642e0000000000000000000000000000600082015250565b60006137ec601283612c2a565b91506137f7826137b6565b602082019050919050565b6000602082019050818103600083015261381b816137df565b9050919050565b7f536f6c64206f7574210000000000000000000000000000000000000000000000600082015250565b6000613858600983612c2a565b915061386382613822565b602082019050919050565b600060208201905081810360008301526138878161384b565b9050919050565b7f4e487b7100000000000000000000000000000000000000000000000000000000600052601160045260246000fd5b60006138c882612cda565b91507fffffffffffffffffffffffffffffffffffffffffffffffffffffffffffffffff8214156138fb576138fa61388e565b5b600182019050919050565b600060608201905061391b6000830186612e5e565b6139286020830185612d6f565b818103604083015261393a8184612c7f565b9050949350505050565b7f41646472657373206e6f742076616c69642e0000000000000000000000000000600082015250565b600061397a601283612c2a565b915061398582613944565b602082019050919050565b600060208201905081810360008301526139a98161396d565b9050919050565b7f4f776e61626c653a206e6577206f776e657220697320746865207a65726f206160008201527f6464726573730000000000000000000000000000000000000000000000000000602082015250565b6000613a0c602683612c2a565b9150613a17826139b0565b604082019050919050565b60006020820190508181036000830152613a3b816139ff565b9050919050565b7f4552433732313a206f70657261746f7220717565727920666f72206e6f6e657860008201527f697374656e7420746f6b656e0000000000000000000000000000000000000000602082015250565b6000613a9e602c83612c2a565b9150613aa982613a42565b604082019050919050565b60006020820190508181036000830152613acd81613a91565b9050919050565b7f4552433732313a207472616e73666572206f6620746f6b656e2074686174206960008201527f73206e6f74206f776e0000000000000000000000000000000000000000000000602082015250565b6000613b30602983612c2a565b9150613b3b82613ad4565b604082019050919050565b60006020820190508181036000830152613b5f81613b23565b9050919050565b7f4552433732313a207472616e7366657220746f20746865207a65726f2061646460008201527f7265737300000000000000000000000000000000000000000000000000000000602082015250565b6000613bc2602483612c2a565b9150613bcd82613b66565b604082019050919050565b60006020820190508181036000830152613bf181613bb5565b9050919050565b6000613c0382612cda565b9150613c0e83612cda565b925082821015613c2157613c2061388e565b5b828203905092915050565b6000613c3782612cda565b9150613c4283612cda565b9250827fffffffffffffffffffffffffffffffffffffffffffffffffffffffffffffffff03821115613c7757613c7661388e565b5b828201905092915050565b7f45524337323155524953746f726167653a2055524920736574206f66206e6f6e60008201527f6578697374656e7420746f6b656e000000000000000000000000000000000000602082015250565b6000613cde602e83612c2a565b9150613ce982613c82565b604082019050919050565b60006020820190508181036000830152613d0d81613cd1565b9050919050565b7f4552433732313a20617070726f766520746f2063616c6c657200000000000000600082015250565b6000613d4a601983612c2a565b9150613d5582613d14565b602082019050919050565b60006020820190508181036000830152613d7981613d3d565b9050919050565b7f4552433732313a207472616e7366657220746f206e6f6e20455243373231526560008201527f63656976657220696d706c656d656e7465720000000000000000000000000000602082015250565b6000613ddc603283612c2a565b9150613de782613d80565b604082019050919050565b60006020820190508181036000830152613e0b81613dcf565b9050919050565b7f45524337323155524953746f726167653a2055524920717565727920666f722060008201527f6e6f6e6578697374656e7420746f6b656e000000000000000000000000000000602082015250565b6000613e6e603183612c2a565b9150613e7982613e12565b604082019050919050565b60006020820190508181036000830152613e9d81613e61565b9050919050565b600081905092915050565b6000613eba82612c1f565b613ec48185613ea4565b9350613ed4818560208601612c3b565b80840191505092915050565b6000613eec8285613eaf565b9150613ef88284613eaf565b91508190509392505050565b600081519050919050565b600082825260208201905092915050565b6000613f2b82613f04565b613f358185613f0f565b9350613f45818560208601612c3b565b613f4e81612c6e565b840191505092915050565b6000608082019050613f6e6000830187612d6f565b613f7b6020830186612d6f565b613f886040830185612e5e565b8181036060830152613f9a8184613f20565b905095945050505050565b600081519050613fb481612b90565b92915050565b600060208284031215613fd057613fcf612b5a565b5b6000613fde84828501613fa5565b91505092915050565b7f4552433732314d657461646174613a2055524920717565727920666f72206e6f60008201527f6e6578697374656e7420746f6b656e0000000000000000000000000000000000602082015250565b6000614043602f83612c2a565b915061404e82613fe7565b604082019050919050565b6000602082019050818103600083015261407281614036565b9050919050565b7f4552433732313a206d696e7420746f20746865207a65726f2061646472657373600082015250565b60006140af602083612c2a565b91506140ba82614079565b602082019050919050565b600060208201905081810360008301526140de816140a2565b9050919050565b7f4552433732313a20746f6b656e20616c7265616479206d696e74656400000000600082015250565b600061411b601c83612c2a565b9150614126826140e5565b602082019050919050565b6000602082019050818103600083015261414a8161410e565b9050919050565b7f4e487b7100000000000000000000000000000000000000000000000000000000600052601260045260246000fd5b600061418b82612cda565b915061419683612cda565b9250826141a6576141a5614151565b5b828204905092915050565b60006141bc82612cda565b91506141c783612cda565b9250826141d7576141d6614151565b5b828206905092915050565b7f4e487b7100000000000000000000000000000000000000000000000000000000600052603160045260246000fdfea264697066735822122056edb9c7d72a7c70e4e22564b70f5d852bd68bea3e3204b1e523b938aacb456264736f6c63430008090033",
  "linkReferences": {},
  "deployedLinkReferences": {}
}